:100000008FC00000A8C00000A6C00000A4C000006F
:10001000A2C00000A0C000009EC000009CC0000064
:100020009AC0000098C0000096C00000F4C4000010
:1000300092C0000090C000008EC000008CC0000084
:100040008AC0000088C0000086C0000084C0000094
:1000500082C0000080C000007EC0000086C1000099
:100060007AC0000078C0000076C0000074C00000B4
:1000700072C000001A0330007800360036006500B8
:10008000720072005F006300740072006C00000078
:100090001203610072006D0061006E0064003100A7
:1000A0006D0000000403090409026500020100C09C
:1000B00032090400000001010000092401000109C7
:1000C00000010109040100020103000007240100EE
:1000D0000141000624020101000624020202000977
:1000E00024030103010201000924030204010101A8
:1000F0000009050202400005000005250101010973
:1001000005810240000500000525010103120110D0
:100110000100000008EB034820010001020001007B
:1001200011241FBECFEFD2E0DEBFCDBF11E0A0E0B3
:10013000B1E0E0E4FEE002C005900D92A030B1070E
:10014000D9F721E0A0E0B1E001C01D92AD31B207C6
:10015000E1F7CAD073C654CF84B7877F84BF0FB688
:10016000F894A89580916000886180936000109257
:1001700060000FBE8FE190E09093CD008093CC00A3
:1001800086E08093CA001092C800E9ECF0E088E1B4
:100190008083539A5A9A84E085BD108288E98083CF
:1001A000469A3E9A80E890E00FB6F89480936100FA
:1001B000909361000FBE8AB180638AB98BB180636E
:1001C0008BB91AC48BB180638F7D8BB908958BB1C5
:1001D00080638F7E8BB90895CF9342E361E881E01D
:1001E0004ED3C82F42E360E882E049D3882319F058
:1001F00090E2C11101C090E18BB180639095892399
:100200008BB9CF910895CF93C0911401C43031F5CB
:1002100081E08093E9008091E80080FF1FC0809119
:1002200008018823D9F01092080150E040E064E012
:1002300070E084E091E0CED1E4E0F1E0DF011D92D6
:10024000CA95E9F78091E8008E778093E8005D9881
:1002500088E893E19093030180930201CF91089580
:10026000CF93DF9300D000D0CDB7DEB780911401DB
:10027000843099F582E08093E9008091E80082FF64
:100280002CC050E040E064E070E0CE010196F0D177
:100290008A819091C80095FFFCCF8093CE008B811E
:1002A0009091C80095FFFCCF8093CE008C819091F7
:1002B000C80095FFFCCF8093CE005C9888E893E15E
:1002C00090930101809300018091F200811105C09B
:1002D0008091E8008B778093E8000F900F900F904B
:1002E0000F90DF91CF91089537DF789478948091C3
:1002F0000201909103010097A1F0019790930301EF
:10030000809302018091000190910101009759F0C2
:1003100001979093010180930001A2DF74DF74D5EF
:10032000E6CF5D9AEFCF5C9AF8CF87FF0CC09CE0D8
:10033000980F923040F0982F9B7F993F21F0803F9B
:1003400018F4807F089580E00895982F9F7E282FCD
:100350002F7C203841F0803E31F081E0903C09F064
:1003600080E08170089581E0FCCF1F920F920FB65C
:100370000F9211242F933F934F935F936F937F932B
:100380008F939F93AF93BF93CF93DF93EF93FF939D
:1003900080911401843009F075C0C091CE00809125
:1003A0000B01811189C0C0930D01D0910A018D2FDD
:1003B000BCDFCBDF882349F0C7FD07C0D0930D0118
:1003C000C0930E0181E080930B01C0910D018C2F31
:1003D000ACDF813F91F0A8F4803B39F040F48039E4
:1003E00021F0803A11F08038A1F493E007C0803DFD
:1003F00021F0803ED1F3803C61F492E090930901BA
:1004000008C0883F79F140F5833FB9F370F3863F28
:1004100049F190910B0120910901622F6150770BF6
:10042000961717060CF444C082958F7080930401D0
:10043000C093050180910E01809306012330A9F538
:1004400080910F018093070110920B011092090116
:1004500081E08093080116C08A3FD8F28D3F10F0EA
:100460008E3FB8F28FE080930401C0930501109293
:1004700006011092070181E08093080110920B01A0
:1004800010920901FF91EF91DF91CF91BF91AF9150
:100490009F918F917F916F915F914F913F912F919C
:1004A0000F900FBE0F901F90189510920701CCCFA0
:1004B0009F5F90930B01E6CFC7FF15C0CD3F88F437
:1004C000CA3F10F4C83F79F48C2F2FDF82958F70CC
:1004D00080930401C0930501109206011092070158
:1004E000B7CFCE3F88F7282F30E0F901E35FFE4F0A
:1004F000C083D09109016D2F6150770B2617370704
:10050000A4F1C0910D018C2F10DF982F92959F7050
:1005100090930401C093050190910E019093060100
:10052000D330B9F490910F019093070110920B0111
:100530001092090191E090930801803B39F060F43A
:10054000803921F0803A11F0803861F4C0930A01BB
:1005500099CF10920701EACF803DC1F3803EB1F3FD
:10056000803CA1F310920A018DCF8F5F80930B0125
:1005700089CF292F33272230310511F1233031055E
:1005800059F02130310509F190E080E030E020E0C1
:10059000FA0131832083089599278130910569F00C
:1005A000009729F0029781F7E4E7F0E002C0E4EA5F
:1005B000F0E0849190E09F01EBCFE0E9F0E0F9CF2B
:1005C00085E690E028EA30E0E3CF82E190E02DE09C
:1005D00031E0DECFAF92BF92CF92DF92FF920F93C6
:1005E0001F93CF93DF936C01EB018A019BD1F82E0F
:1005F000811124C00115110539F0F8018081918124
:10060000C81BD90BC80ED91EB12CA12C2097B1F054
:100610008091E80085FD22C08091E8008E7780936C
:10062000E800F2D301151105A1F0F8018081918154
:10063000A80EB91EB182A08285E0F82E8F2DDF9121
:10064000CF911F910F91FF90DF90CF90BF90AF900F
:10065000089568D18823D1F2F82EF0CFF601819168
:100660006F018093F1002197FFEFAF1ABF0ACECF41
:10067000AF92BF92CF92DF92FF920F931F93CF93CF
:10068000DF936C01EB018A014DD1F82E811124C05A
:100690000115110539F0F80180819181C81BD90B32
:1006A000C80ED91EB12CA12C2097B1F08091E80082
:1006B00085FD22C08091E8008B778093E800A4D369
:1006C00001151105A1F0F80180819181A80EB91ED4
:1006D000B182A08285E0F82E8F2DDF91CF911F91FE
:1006E0000F91FF90DF90CF90BF90AF9008951AD1F7
:1006F0008823D1F2F82EF0CF8091F100F60181939A
:100700006F012197FFEFAF1ABF0ACECFFC01809196
:100710001B0190911C0186179707A0F061157105C8
:1007200029F49091E8009E779093E80090E061159D
:10073000710551F4911108C08091E80082FF32C028
:1007400080E00895BC01F2CF809114018823B1F1BB
:100750008530B1F18091E80083FD2EC08091E800E2
:1007600082FDEACF8091E80080FFE1CF2091F20086
:1007700030E06115710519F02830310558F091E02D
:100780002830310509F090E02091E8002E77209381
:10079000E800CDCF81918093F100615071092F5F06
:1007A0003F4FE7CF80911401882341F0853041F01D
:1007B0008091E80083FFC0CF81E0089582E0089532
:1007C00083E00895FC0180911B0190911C01861724
:1007D0009707A0F06115710529F48091E8008E77E4
:1007E0008093E80090E06115710551F4911108C003
:1007F0008091E80082FF33C080E00895BC01F2CF11
:10080000809114018823B9F18530B9F18091E80015
:1008100083FD2FC08091E80082FDEACF8091E8003F
:1008200080FFE1CF2091F20030E06115710519F0F1
:100830002830310558F091E02830310509F090E07A
:100840008091E8008E778093E800CDCF84918093EB
:10085000F1003196615071092F5F3F4FE6CF8091D3
:100860001401882341F0853041F08091E80083FF36
:10087000BFCF81E0089582E0089583E00895982F26
:10088000953028F08F708093E90081E0089590936F
:10089000E900242F762F50E0981731F07091EC008A
:1008A0002091ED005091F00021FD02C09F5FE8CF44
:1008B0003091EB003E7F3093EB003091ED003D7FB7
:1008C0003093ED003091EB0031603093EB0070938A
:1008D000EC002093ED005093F0002091EE0027FDF6
:1008E000E5CF80E008958091150187FF13C08091C6
:1008F000E80082FF06C08091E8008B778093E800D3
:1009000004C0809114018111F2CF089580911401E7
:100910008823D9F38091E80080FFF8CF8091E80028
:100920008E77ECCF2091E4003091E50095E6A901A7
:100930002091EC00822F817020FF06C08091E8009A
:1009400080FF06C080E008952091E80022FD1AC0D3
:1009500080911401882389F0853089F08091EB0023
:1009600085FD0FC02091E4003091E5004217530748
:10097000F9F29150E1F684E0089582E0089583E071
:10098000089581E0089541D043D08091D8008F77B9
:100990008093D8008091D80080688093D80080919F
:1009A000D8008F7D8093D80084E089BD86E089BD22
:1009B00009B400FEFDCF10921401109210011092A4
:1009C00012011092110142E060E080E058DF809156
:1009D000E1008E7F8093E1008091E200816080934E
:1009E000E2008091E20088608093E2008091E00064
:1009F0008E7F8093E0000895E3E6F0E080818E7FB3
:100A0000808381E080931301BECF1092E2000895AD
:100A10001092E10008951F920F920FB60F921124C9
:100A20002F933F934F935F936F937F938F939F93F6
:100A3000AF93BF93EF93FF938091E10082FF0AC0D1
:100A40008091E20082FF06C08091E1008B7F80935D
:100A5000E100D9D18091E10080FF17C08091E200D0
:100A600080FF13C08091E2008E7F8093E20080912E
:100A7000E20080618093E2008091D80080628093E0
:100A8000D80019BC10921401A2DB8091E10084FF10
:100A900029C08091E20084FF25C084E089BD86E002
:100AA00089BD89B5982F917080FFFBCF8091D800C8
:100AB0008F7D8093D8008091E1008F7E8093E1004C
:100AC0008091E2008F7E8093E2008091E20081605D
:100AD0008093E200809110018823D9F184E0809313
:100AE000140170DB8091E10083FF22C08091E2005D
:100AF00083FF1EC08091E100877F8093E10082E048
:100B000080931401109210018091E1008E7F8093F8
:100B1000E1008091E2008E7F8093E2008091E2000C
:100B200080618093E20042E060E080E0A8DE6BD16B
:100B3000FF91EF91BF91AF919F918F917F916F91B5
:100B40005F914F913F912F910F900FBE0F901F908B
:100B500018958091E30087FD93E090931401C1CF35
:100B60001F93CF93DF93CDB7DEB7AA970FB6F89454
:100B7000DEBF0FBECDBF85E191E02091F100FC0109
:100B80002193CF01F1E08D319F07B9F73CD18091DE
:100B9000E80083FF11C09091150180911601853006
:100BA00009F4BDC008F5813009F489C0882309F42F
:100BB00061C0833009F483C08091E80083FF0AC0DC
:100BC0008091E800877F8093E8008091EB0080624D
:100BD0008093EB00AA960FB6F894DEBF0FBECDBF90
:100BE000DF91CF911F910895883009F4CDC08930ED
:100BF00009F4D7C0863001F790589230E8F680911A
:100C00001701909118018C3D23E0920709F0A9C0CB
:100C100083E08A838AE289834FB7F894DE011396D2
:100C200020E03EE051E2E32FF0E050935700E491E2
:100C300020FF03C0E295EF703F5FEF708E2F90E0D2
:100C4000EA3008F48CC0C7968D939D932F5F2431B2
:100C500051F74FBF8091E800877F8093E8006AE2F8
:100C600070E0CE01019652DD8091E8008B77809391
:100C7000E800A2CF903881F0923809F09DCF8091A2
:100C800019018F708093E9008091EB0085FB882724
:100C900080F91092E90006C0809111019091120133
:100CA000911182609091E800977F9093E800809383
:100CB000F1001092F1008091E8008E77A0C0992396
:100CC00009F48DC0923009F077CF909117019111FE
:100CD00091C0909119019F7009F46ECF9093E90033
:100CE0002091EB0020FF86C0833031F48091EB002F
:100CF00080628093EB007EC08091EB0080618093E6
:100D0000EB0021E030E001C0220F9A95EAF7209332
:100D1000EA001092EA008091EB008860EACF91111E
:100D20004BCF109117011F778091E3008078812BC2
:100D30008093E3008091E800877F8093E800D3DD13
:100D40008091E80080FFFCCF8091E3008068809371
:100D5000E30082E0111183E0809314012DCFC0964F
:100D600073CFAE014F5F5F4F6091190102DCBC0190
:100D7000892B09F421CF9091E800977F9093E800A8
:100D800089819A811FDD70CF903809F015CF80914D
:100D9000E800877F8093E800809110018093F10044
:100DA0008ACF911109CF90911701923008F004CFAA
:100DB0008091E800877F8093E8009093100193DD95
:100DC00080911001882311F084E005C08091E30038
:100DD00087FDFACF81E080931401FED9EDCE90918A
:100DE0001701913009F0E8CE91E0833009F090E0EE
:100DF000909312011092E9008091E800877F809320
:100E0000E80071DDD9CE0895CF9380911401882335
:100E100099F0C091E900CF709091EC00892F81701A
:100E200090FD80E8C82B1092E9008091E80083FDD6
:100E300097DECF70C093E900CF910895F894FFCF6B
:00000001FF
